:10000000E07F001019010000F5000000F900000079
:10001000FD000000010100000501000000000000DB
:1000200000000000000000000000000009010000C6
:100030000D0100000000000011010000150100008A
:10004000DD010000DD010000DD010000DD01000038
:10005000DD010000DD010000DD010000DD01000028
:10006000DD010000DD010000DD010000DD01000018
:10007000DD010000DD010000DD010000DD01000008
:10008000DD010000DD010000DD010000DD010000F8
:10009000DD010000DD010000DD010000DD010000E8
:1000A000DD010000DD010000DD010000DD010000D8
:1000B000DD010000DD010000DD010000DD010000C8
:1000C000DD010000DD010000DD010000B81C0000C2
:1000D0000000001008000000B81C000000C007204D
:1000E0000000000014000010100B000000C00720EA
:1000F00000000000FEE700BFFEE700BFFEE700BF14
:10010000FEE700BFFEE700BFFEE700BFFEE700BF5F
:10011000FEE700BFFEE700BF70B5144B144904E0D2
:1001200098681C685D680C33C0B98B42F8D31149DC
:100130008B420ED2002401E08B420AD258681D681F
:1001400008330028F8D00022545104329042F3D9E9
:10015000FAE701F089FB00F003F9FEE700221659E7
:10016000565104329042E0D9F9E700BFCC000000BC
:10017000E4000000F400000030B4AAB10468531E8B
:100180000C60C3F3800404239A420DD924B144685F
:1001900008239A424C6007D91D581C1D5D502558F4
:1001A00008339A426550F7D830BC704710B491B10B
:1001B0004B1EC3F3800204230024994224500AD921
:1001C0001AB108239942446005D91A1D1C500833FE
:1001D00099421450F9D810BC704700BFFEE700BF29
:1001E00040F21403C1F200031A780AB90120187012
:1001F000704700BF40F21000C1F2000008B503686C
:100200002BB140F20003C0F2000303B1984708BDD0
:100210002DE9F00F4B494C4DD1F840B0D5F874A002
:10022000DFF83881CBEB0A0909F50060431CDB0BD2
:1002300003F1020C454CFF210020F822BCF1030F12
:10024000206088F8002088F8011088F8021052D940
:100250005C1C9E1E032C4246C6F340056FD0402115
:1002600005230326507106209C45D6701171384A2B
:1002700041D9002D37D09C420CBFF0266026C3F335
:10028000032514BF0021FF21D37046EA0505023380
:1002900002301571517103329C45C0B223D82AE057
:1002A0000701591CFFB2C1F30716C3F30325991CBC
:1002B00047EA05050230D3701571567103328C423E
:1002C000C0B215D003330501EDB2C3F30716C1F375
:1002D00003231D438B1C0230D170157156710332FC
:1002E0009C45C0B207D99C42DAD1FF26F027DCE753
:1002F000FF26F025EBE7174B174A03F140065D7820
:100300009C780233557094700232B342F7D109F1F0
:1003100001090AF1010A4FEA19224FEA194CCBEB05
:100320000A0B4FEA196988F83CB488F83D2488F82C
:100330003EC488F83F94BDE8F00F00F0CBBA084601
:10034000F0218DE7C81B0000501B0000F8020010D0
:10035000270500103F1C0000230900102405001091
:1003600008B500F027FC10B9FFF752FFFEE700F0D8
:1003700039FCFFF74DFFF9E7074B93F90C20002AF2
:1003800001DB9B681BB98520012100F01BBF022007
:10039000012100F017BF00BF1C000010F8B5284C69
:1003A000284E294DA17B04F10F0032682B6800F024
:1003B000D1F90146306000282CD0244E2F683368D4
:1003C0009F421AD39F4200D0F8BDA268BA4204D01F
:1003D000FFF7D2FF1A4A376892681D4B1D486168C3
:1003E000C7EB020E18602EEAEE72002059609A6088
:1003F0001873194B03211970F8BDDF1B402F28BF5C
:1004000040273A46852000F0E9FE286833683F1807
:100410002F60D7E7FFF7B0FF0C4BA1681A680D48B3
:100420000B4BC2EB010C616818602CEAEC720120E6
:100430009A6059601873084B03221A70F8BD00BF08
:100440001C00001044000010180000103C000010B8
:10045000480000105553425340000010024B002248
:100460001A7000F00DB900BF400000102DE9F043F4
:1004700083B011F0020F3DD1684C2378042B39D89A
:10048000DFE803F0405372723B002A6864488242FE
:1004900040D16F7B002F3DD1A97B4B1E5FFA83FCBF
:1004A000BCF10F0F36D8DFF888E15E4E6B46CEF810
:1004B000007005F10F0001AA37602F7B00F0E6F80D
:1004C000594B1860002800F08D80019B002B05DD42
:1004D00017F0800F69D1009A002A69D1A868534D9E
:1004E000834265D83360002B75D0009B002B72D1FE
:1004F0000122227003B0BDE8F0830220012100F048
:1005000061FEF7E7494D2022294600F0B7FE1F287B
:100510000190BAD08520012100F054FE0121022073
:1005200000F050FE04212170E4E7414D3D4E2A6861
:1005300033689A421FD39342DCD13C4DAA68934260
:100540004ED0FFF719FFAB6830683A4AC0EB030C96
:1005500039482CEAEC73696810609360002003232B
:10056000516010732370C5E700210A4600F086FE33
:1005700000222270BEE72C4F9A1A3968022000F040
:100580007DFEDFF8A880814698F80E1008F10F0074
:100590003A682B6800F0DEF83860002834D029680B
:1005A000336809EB01022A60C5E70099002995D15B
:1005B000FFF7E2FEA96832681E4BC2EB010C6968C6
:1005C0001D4859602CEAEC72022118609A60197378
:1005D000032323708EE702202070FFF7DFFE89E7F8
:1005E0001846B2E7FFF7C8FEA8683268114B696881
:1005F000821A22EAE27210489A6001221860596059
:100600001A730323237075E7FFF7B6FED8F80810B6
:100610003068084B0A1AD8F80410EAE740000010C6
:10062000555342433C000010440000101C000010D1
:1006300018000010480000105553425370B511F0D7
:10064000020507D10C4C2378032B04D0042B0DD0CA
:10065000022B07D070BD852008490D2200F0BEFD99
:10066000257070BDBDE87040FFF798BE8520012160
:10067000BDE8704000F0A6BD40000010480000102A
:10068000014B00221A6070475802001070B4012418
:100690001C6004782C4E6509755D8D421FD82F2C87
:1006A00031D8DFE804F01F3030381F3030303030C0
:1006B00030303030303030304A3030303030303020
:1006C000301F303030303030303030233030273051
:1006D0003F3030303018437813F0020303D000204D
:1006E00070BC7047002313601848F9E708201060B9
:1006F0001648F5E7C37990F808C014484CEA03217E
:100700004B021360ECE7124900234FF4A420086069
:1007100018461360E4E703790C48122B28BF122314
:100720001360DDE7C47990F808C04CEA0421480260
:100730001060002205481A60D2E701790348242995
:1007400028BF24211160CBE7A01A00005800001038
:100750005802001070B582B0017814462F2925D8B0
:10076000DFE801F02A2424324224242424242424EF
:1007700024242424242444242424242424242442FB
:1007800024242424242424242469242418244B24C9
:1007900024242442DC05E40D8578C6780279417969
:1007A000002C5CD03748001902B070BD364A4FF4B7
:1007B000A42111600020F7E7334A324B106800286B
:1007C0000CBF18460020EFE730491222204601F006
:1007D000BFF82D4A2B481368190A21731D0C0021FC
:1007E000A57063731160DFE72648DDE720462849DE
:1007F000242201F0ADF82348D6E703F14006F505C1
:10080000EC0DC678857802794179002CCAD136047E
:1008100046EA056545EA010141EA022000EB532062
:10082000184900F03DFA0028BCDA174B4FF4433268
:100830001A602046B8E701A800F028FA01990023C1
:100840004A1E500E510A6070520C0220A071237093
:10085000A270E17023716371E3710A48A4E7360462
:1008600046EA056545EA010E4EEA022C0CEB5320E0
:10087000044900F077FA002894DA064A024B204631
:100880001A6091E75800001058020010CC1A0000BE
:10089000A81A00000011030010B5838853B94488DA
:1008A00034B94378FE2B0BD0FF2B05D0204610BD6A
:1008B000184610BD002010BDC08838B1204610BDBC
:1008C00012680123147018460B6010BDFFF7C6FDB7
:1008D000012010BD08B500F0F5FD202000F066FCF9
:1008E0000B4800F015FE0B4A01200B4900F098FB65
:1008F00085200A4900F012FC0220094900F00EFC94
:10090000012000F04DFC00F033FD00F031FDFAE76E
:10091000E01A00005C020010990800003D0600008B
:100920006D040000F8B5064672B63C4B994235D3CB
:1009300003F50043994256D303F50043994254D33B
:1009400003F50043994252D303F50043994250D333
:1009500003F5004399424ED303F5004399424CD32B
:1009600003F5004399424AD303F50043994248D323
:1009700003F50043994246D303F50043994244D31B
:1009800003F50043994242D303F50043994240D313
:1009900003F5004399423ED362B6F8BD1025204AC4
:1009A00052F8250088420BD01E4C32202060656032
:1009B000A560E6601B481C491C4B984762B6F8BD11
:1009C000184C32272046276017496560A560E6600D
:1009D000164FB847342121606560A560E660204667
:1009E0001149B847E1E71125D9E71225D7E71325C3
:1009F000D5E71425D3E71525D1E71625CFE7172529
:100A0000CDE71825CBE71925C9E71A25C7E71B2528
:100A1000C5E71C25C3E71D25C1E700BFFF7F010017
:100A2000C81B0000FC02001010030010F11FFF1F84
:100A30002DE9F0412F4B1C6854B3002A2BD02E4EC9
:100A40002E4C30680F7824180120551E904204F86F
:100A5000017F05EA000512D035B191F801C00220EE
:100A6000904204F801CF0AD00D5C0130657011F896
:100A700000C0013084F802C002349042F4D13168E1
:100A80005518B5F5007F356007D00020BDE8F0812E
:100A90001860002AD3D1184EF1E7DFF874804FF4C4
:100AA0007A77D8F80020164C1968B2FBF7F0FFF7F8
:100AB00039FF23680F4E03B1FEE7D8F80000326813
:100AC000B0FBF7F772B60F4B4FF0330E5A600E4A79
:100AD0001846C3F800E09A60DD601F6121460B4BA9
:100AE000984762B623681BB9034933600B60CCE7B3
:100AF000FEE700BF60020010640200102303001034
:100B000010030010FC02001024030010F11FFF1F4F
:100B100004000010F8B504460D4672B6064E3327A1
:100B2000F3603046054937607560B2603461044B4C
:100B3000984762B6F8BD00BFFC0200101003001019
:100B4000F11FFF1F10B5054B3424586099601846FB
:100B50001C60DA600249034B984710BDFC0200108C
:100B600010030010F11FFF1F10B5054B3224586011
:100B7000996018461C60DA600249034B984710BD23
:100B8000FC02001010030010F11FFF1F08B5014BFD
:100B9000984708BDF11FFF1F08B5044904484FF4EA
:100BA00080328A600368984708BD00BF00ED00E00E
:100BB0000400010038B5084B084C102235251846B2
:100BC0001D605A609A602146054B9847206800389E
:100BD00018BF012038BD00BFFC0200101003001038
:100BE000F11FFF1F08B50C4A002305E0506910F4FF
:100BF000802F07D03C2B06D05169023311F4802F8F
:100C0000F4D108BD08BD0548054A4FF48031816024
:100C10001368984708BD00BF20C0092000ED00E020
:100C2000040001002DE9F047DFF85CA0134CDAF86E
:100C30000010134D4FF47A79B1FBF9F332224FF0E3
:100C400010081D270F4E204629462260E360C4F895
:100C50000480A760B047DAF800003422B0FBF9F353
:100C6000E360204629462260C4F80480A760B047AC
:100C70002B6803B1FEE7BDE8F08700BFFC0200105F
:100C800010030010F11FFF1F04000010034A116C35
:100C9000C1F5002303600020704700BFC81B00009F
:100CA0002DE9F0474502B5F5007F0C4644D3B5F574
:100CB000006F44D2284FDFF8A890EF1900234FF0BF
:100CC000010A0BE0A25D88F8012014F806C0BCF10F
:100CD000E50F21D0731CB3F5007F2DD0E05C5E1CC6
:100CE0007870E25C07F10108E52A08F10107E9D113
:100CF0005B19B3F5C46FE5D1D9F800100029E1D133
:100D0000FFF790FFC9F800A0A25D88F8012014F851
:100D100006C0BCF1E50FDDD17119B1F5C46FD9D1B1
:100D2000D9F80020002AD5D1FFF77CFF731CB3F55A
:100D3000007FC9F800A0D1D10020BDE8F087074BA3
:100D4000A5F50065186C4FF400724019FFF770FEAE
:100D50000020BDE8F08700BF23030010C81B00007F
:100D6000F80200102DE9F007634B40021A6C40F2C4
:100D7000FF13984240F2FF75A2F500665F4FDFF85F
:100D800080C1DFF880810CD8142800F09E8000F22A
:100D90009480132800F0A4801D2840F2AA8000242B
:100DA00006E0A8429BBFC419A4F50074345C247803
:100DB0000C700124001922E0142855D03ED81328C5
:100DC0005DD01D2873D810F808A004F10109B9F509
:100DD000007F01F804A025D00130984226D81428BD
:100DE00058D033D9B0F5FF7F5FD098425BD01D2833
:100DF00060D9002401F80940013009F1010498424A
:100E0000DAD9A8429DBF00EB0709A9F5007999F846
:100E100000A016F800A004F10109B9F5007F01F85F
:100E200004A0D9D10020BDE8F0077047A8429BBFBD
:100E30003C18A4F50074345C2478DBE7B0F5FF7F40
:100E40000FD09842BDD14FF0AA0ABEE71328CED1E9
:100E5000DCF8744004F500640134A41AC4F3472498
:100E6000C8E74FF0550AB0E7DCF8749009F5006A5E
:100E70000AF10109C2EB090ACAF3474AA5E7DCF8FF
:100E8000749009F5006A0AF10109C2EB090ACAF374
:100E9000472A9AE7DCF8744004F500640134A41A88
:100EA000C4F34744A6E7AA24A4E75524A2E74FF0D9
:100EB000000A8AE718F800409CE7B0F5FF7F0DD0E4
:100EC00098427FF469AFAA2472E7DCF8744004F515
:100ED00000640134A41AC4F3474469E7552467E762
:100EE000DCF8744004F500640134A41AC4F3472408
:100EF0005EE718F800405BE7C81B000024050010FF
:100F0000501B0000801C000070B5094C094D26687C
:100F10008020402EA8BF40263246296800F05EF9A6
:100F2000286822688319961B2B60266070BD00BF5D
:100F300090020010940200108020012100F042B9BC
:100F400070B500282AD111F004012AD12E4D2A684B
:100F5000002A54DD2D4C216800F090F900284ADB6E
:100F600023682A681918101A21602860C0B9284817
:100F7000284B90F800E02849CEF3411C53F82C2070
:100F800051F82C302260002B35D024492246984756
:100F9000002830D0BDE87040FFF7B6BF8028F9D0F8
:100FA00070BD1B4D0822294600F068F92978194CBC
:100FB000C1F34112EB88154854F82250124C0560D9
:100FC0001648236003600BB1C909E9D0124951F8F2
:100FD000223083B10E4E114D304629460B4A9847B8
:100FE00048B1F2882B689A42D4BF22602360BDE8E2
:100FF0007040FFF789BFBDE87040FFF79DBF0A460C
:10100000BDE8704000F03AB9900200109402001060
:101010008802001078020010680200109802001088
:10102000034B43F82010034B43F82020704700BFC8
:101030006802001078020010104B020442F4A06213
:101040003020C3F80802C3F81022D3F800220B485E
:1010500002F01002002AF8D00B0443F48071C0F8AB
:1010600008220246C0F81012D2F8000200F0100365
:10107000002BF9D0014AC2F80832704700C0005076
:10108000124B0004302140F4A062C3F80812194644
:10109000C3F81022D1F800320C4A03F01003002BE1
:1010A000F8D040F40070C2F808321146C2F81002BD
:1010B000D1F80032054A03F02003002BF8D0C2F823
:1010C0000832D2F81422D0B2704700BF00C00050DE
:1010D00030B400F00F05C00940EA4500012414FABD
:1010E00000F20D4BD3F844521C462A43C3F8442265
:1010F000C3F84802C3F84C12D4F8001201F480730C
:10110000002BF9D0044A40F040000021C2F8083218
:1011100030BCFFF791BF00BF00C0005030B400F0FA
:101120000F0CC30943EA4C05012212FA05F0094BE2
:10113000094DD3F8344245F82C1040EA0404C3F8B2
:101140003442D3F8040240F00402C3F8042230BC55
:10115000704700BF00C00050A4020010044B0549B6
:10116000D3F80422086042F00802C3F80422704752
:1011700000C00050A0020010044B0549D3F804221F
:10118000086042F00102C3F80422704700C000501A
:101190009C02001040F08001D020FFF74DBF00BF3F
:1011A000011E18BF0121FE20FFF746BF0146F320B4
:1011B000FFF742BF00F00F03C00940EA4300FFF70A
:1011C0005FBF00BFC20900F00F0342EA43000039CD
:1011D00040F0400018BF0121FFF72EBFF0B400F02F
:1011E0000F04244BA50045F00205C3F82852C3F8AC
:1011F0002422D3F82852C00915F0020F40EA440017
:1012000012D08E78CC780F78350445EA04654E7894
:1012100045EA070C4CEA0625C3F81C52D3F82852BD
:10122000043115F0020FECD1124B050445F4A06017
:101230003021C3F808121D46C3F81002D5F8000289
:101240000C4900F01003002BF8D0C1F8083230230D
:10125000C1F80832084B0846C1F81032D0F8001225
:1012600001F01003002BF9D00248C0F808321046F4
:10127000F0BC704700C000500005FA00F0B400F068
:101280000F04364BA50045F00105C3F82852D3F8EA
:10129000205215F4006FFAD015F4806F5AD0AB05C8
:1012A0009D0D5DB3002615F0010F37463346DFF87C
:1012B000ACC019D017F0030F08BFDCF8186211B1E9
:1012C0009A42C8BFCE550133AB4217D0360A13F04D
:1012D000030F01D1DCF8186211B19A42C8BFCE5495
:1012E00001331F46360AE5E7DCF8186211B1002A1F
:1012F000C8BF0E7001231F46360ADBE7C30943EA65
:1013000044000204154B002142F4A0623020C3F8CF
:101310002812C3F808021946C3F81022D1F80002B7
:101320000E4A00F01003002BF8D0C2F808320C4B24
:101330003020C2F808021146C2F81032D1F800225B
:1013400002F01003002BF9D004492846C1F80832F6
:10135000F0BC70474FF0FF30FAE700BF00C000500C
:101360000005F200011E18BF0121D820FFF764BE5E
:10137000F8B5294BD3F8004214F0010F09D02748E3
:1013800001220568C3F808221DB1F520FFF778FE99
:10139000A84714F0080F2DD114F0040F29D01E4EC9
:1013A00004251F4FC6F8085234460025012111FAC2
:1013B00005F3D4F83002034218D0C4F83832D4F818
:1013C000003203F02002002AF9D0681057F82030CC
:1013D000C6F80822D6F8141243B100F00F0E4EEAF8
:1013E000C51C0CF08F0001F01F0198470135202D1E
:1013F000DCD1F8BD084B0821FE20C3F80812FFF726
:101400003FFE10F01A0FC7D0064A1368002BC3D056
:1014100000F015009847BFE700C000509C02001084
:10142000A4020010A002001010B5224B22481C6933
:10143000224A24F4402119611C6944F48021196175
:10144000DC68114624F0405E2EF03004DC60DC687D
:1014500044F0005C4CF01004DC605C6824F07054D4
:101460005C605C6844F0A0545C60D0F8C43043F029
:101470000043C0F8C4301A23C2F8F43FD1F8F80F83
:101480000E4B00F01A021A2AF8D100224FF0FF3159
:10149000C3F804221046C3F80812C3F82C22C3F87C
:1014A0003422C3F83812C3F84022FFF77FFE012030
:1014B00010BD00BF00C0024000C00F4000C000507F
:1014C000704700BF10B50E4CFFF7AEFF0D48FFF799
:1014D00045FE00202146FFF721FE80202146FFF730
:1014E0001DFE00204021FFF7F3FD80204021FFF783
:1014F000EFFD00200449054AFFF792FD012010BDD1
:10150000410F0000C114000071150000E40200103A
:10151000014B1860704700BFF0020010F0B413498F
:10152000060A0968C0B20C7874B1002702E00919F4
:101530000C784CB14D78B542F9D1B84207D00919B1
:101540000C780137002CF5D12046F0BC7047022EF4
:10155000196003D0097801201160F6E7CC7891F882
:1015600002C001204CEA04231360EEE7F0020010F1
:10157000F0B583B05A4B05461C680F4616460CB1B1
:10158000A047A0B9287800F01F03012B2BD0022B15
:1015900016D09BB995F801C03268BCF1090F0DD87F
:1015A000DFE80CF05D0C0C0C0C584F0C643601207D
:1015B00003B0F0BD0A2A75D00B2A60D00020F7E7EF
:1015C0006C783668012C65D017D228790193FFF723
:1015D000F1FD0023C0F3400C86F800C07370019940
:1015E00001203960E4E76A783168002AE2D10A70A4
:1015F0004A70022218463A60DAE7032CDED16A8884
:10160000002ADBD128790121FFF7DCFD0120CFE79B
:10161000AE78002E55D0334A14682378002B46D07C
:10162000FF27394608E0052A2FD0022A00D1617928
:10163000E4182378002B3AD06278042AF3D1E778B3
:10164000F6E76888A9883A46334603B0BDE8F0401B
:10165000FFF764BFA878FFF79DFD0120A8E70023EE
:1016600002211370537001203960A1E71E48012345
:1016700090F800C0184682F800C03B6098E76A887E
:10168000002A9BD13A60184692E78E42D0D1E7B14A
:101690003146CDE76988002990D12879FFF792FD7E
:1016A000204685E70020087018463B6080E701204F
:1016B000FFF758FEB5F802C00B4B012083F800C0BD
:1016C00076E73046FFF74EFEF4E794F805E021791F
:1016D000A07841EA0E21FFF7FBFC31462378A7E70B
:1016E000EC020010F0020010F4020010014B186030
:1016F000704700BFEC020010EFF30980004670470E
:1017000080F30988704700BFEFF3088000467047F8
:1017100080F30888704700BFEFF31280704700BF66
:1017200080F31188704700BFEFF31080704700BF4F
:1017300080F31088704700BFEFF31380704700BF3D
:1017400080F31388704700BFEFF31480704700BF29
:1017500080F31488704700BF00BA704740BA7047E2
:10176000C0BA704790FAA0F0704700BFD0E84F0FA2
:10177000C0B27047D0E85F0F80B2704750E8000FEA
:10178000704700BFC1E8400F704700BFC1E8500F6D
:10179000704700BF41E80000704700BF2C4BD3F8F2
:1017A0008800C0F30162032A12D0D3F80C1101F0B3
:1017B0000302012A3CD0022A2AD0D3F80431254959
:1017C00003F0FF02501C244BB1FBF0F21A6070478B
:1017D000D3F80C1101F00302012A25D0022A32D0DD
:1017E000D3F888201D495004420C02FB0111D3F8A4
:1017F0008800D3F80431C0F30742501C03F0FF0205
:10180000B1FBF0FC144B501CBCFBF0F21A607047AB
:10181000D3F804214FF4FA4C02F0FF01481C0E4BA0
:10182000BCFBF0F21A607047D3F888200C49DAE765
:10183000D3F804110B4B01F0FF00421C0649B3FB27
:10184000F2F008607047D3F888204FF47A41CAE775
:1018500000C00F4000093D000400001000127A0093
:1018600000366E01001BB70030B437492023C1F8A1
:10187000A031D1F8A001344A10F0400FF9D0012472
:10188000AA20552303211325C2F80411C2F80C41E4
:101890001146C2F88450C2F88C00C2F88C30C2F8ED
:1018A0008040C2F88C00C2F88C30D1F88830264ACB
:1018B00013F0806FF9D00321AA245520C2F88010BC
:1018C000C2F88C401146C2F88C00D1F888301E4A0C
:1018D00013F0407FF9D02324C2F8A440AA20552356
:1018E0000124C2F8AC001146C2F8AC30C2F8A040E6
:1018F000C2F8AC00C2F8AC30D1F8A830124A13F4E8
:10190000806FF9D00321AA235520C2F8A010C2F895
:10191000AC301146C2F8AC00D1F8A8000A4A10F465
:10192000407FF9D000230948C2F8A8314FF49871DC
:10193000C2F8AC314FF4A043C2F8C400C2F8C811D9
:10194000136030BC704700BF00C00F40DE87280422
:10195000032A2DE9F00109D82AB10023CC5CC45434
:1019600001339342FAD1BDE8F00170470B4682186B
:10197000014603E02478013301F8014B11F0030F15
:101980001C46F7D113F003055DD06E42C5F1040C7F
:10199000ED009B594FEACC0C08E00434A7593B46B4
:1019A00007FA0CF748EA070741F8047B571A23FAAD
:1019B00005F8032FF1DC03E014F8013B01F8013BCB
:1019C0008A42F9D8CFE753F8404C41F8404C53F8DD
:1019D0003C4C41F83C4C53F8384C41F8384C53F8E7
:1019E000344C41F8344C53F8304C41F8304C53F8F7
:1019F0002C4C41F82C4C53F8284C41F8284C53F807
:101A0000244C41F8244C53F8204C41F8204C53F816
:101A10001C4C41F81C4C53F8184C41F8184C53F826
:101A2000144C41F8144C53F8104C41F8104C53F836
:101A30000C4C41F80C4C53F8084C41F8084C53F846
:101A4000044C41F8044C561A1D460C4640334031B4
:101A50003F2EB8DC2B460FE053F8101C44F8101C46
:101A600053F80C1C44F80C1C53F8081C44F8081CD0
:101A700053F8041C44F8041C161B21461D46103460
:101A800010330F2EE8DC2B4602E0246841F8044BAB
:101A9000551A1C46032D03F10403F6DC90E700BF42
:101AA000060A0A00100C0000008005021F0000005A
:101AB0004C504355534220204D6173732073746F13
:101AC0007261676520202020302E31207000FF00D9
:101AD0000000000A00000000FFFF000000000000FE
:101AE0001201000200000040FFFF0300000101029C
:101AF000030109022000010100C0320904000002B4
:101B00000806500007058502400000070502024054
:101B1000000004030904100344006500760042003D
:101B20006F0061007200643028034C0050004300D5
:101B30003100370035003900200042006F006F008F
:101B400074006C006F0061006400650072000000AA
:101B5000FF0F0000FF1F0000FF2F0000FF3F0000ED
:101B6000FF4F0000FF5F0000FF6F0000FF7F0000DD
:101B7000FF8F0000FF9F0000FFAF0000FFBF0000CD
:101B8000FFCF0000FFDF0000FFEF0000FFFF0000BD
:101B9000FF7F0100FFFF0100FF7F0200FFFF020047
:101BA000FF7F0300FFFF0300FF7F0400FFFF04002F
:101BB000FF7F0500FFFF0500FF7F0600FFFF060017
:101BC000FF7F0700FFFF070000000000001000007B
:101BD0000020000000300000004000000050000025
:101BE0000060000000700000008000000090000015
:101BF00000A0000000B0000000C0000000D0000005
:101C000000E0000000F00000000001000080010082
:101C100000000200008002000000030000800300BA
:101C200000000400008004000000050000800500A2
:101C3000000006000080060000000700008007008A
:101C40004C50433137353920202020280000000037
:101C50000000000000000000000000000000000084
:101C60004649524D5741524542494E2018BC419772
:101C70003738373800003D6E2B38020000D007009F
:101C8000EB3C904D53444F53352E30000240010041
:101C9000011000EC03F80200010001000000000048
:0C1CA000F8B500BFF8BC08BC9E467047B9
:0C1CAC00F8B500BFF8BC08BC9E467047AD
:081CB80000000000000E2707E8
:041CC000F50100002A
:041CC400E10100003A
:041CC8000000000018
:0400000300000119DF
:00000001FF
